{
  "abi": [
    {
      "anonymous": false,
      "inputs": [
        {
          "indexed": true,
          "internalType": "address",
          "name": "owner",
          "type": "address"
        },
        {
          "indexed": true,
          "internalType": "address",
          "name": "approved",
          "type": "address"
        },
        {
          "indexed": true,
          "internalType": "uint256",
          "name": "tokenId",
          "type": "uint256"
        }
      ],
      "name": "Approval",
      "type": "event"
    },
    {
      "anonymous": false,
      "inputs": [
        {
          "indexed": true,
          "internalType": "address",
          "name": "owner",
          "type": "address"
        },
        {
          "indexed": true,
          "internalType": "address",
          "name": "operator",
          "type": "address"
        },
        {
          "indexed": false,
          "internalType": "bool",
          "name": "approved",
          "type": "bool"
        }
      ],
      "name": "ApprovalForAll",
      "type": "event"
    },
    {
      "anonymous": false,
      "inputs": [
        {
          "indexed": true,
          "internalType": "uint256",
          "name": "_tokenId",
          "type": "uint256"
        },
        {
          "indexed": true,
          "internalType": "address",
          "name": "_operator",
          "type": "address"
        },
        {
          "indexed": false,
          "internalType": "uint256",
          "name": "_value",
          "type": "uint256"
        }
      ],
      "name": "ApprovalValue",
      "type": "event"
    },
    {
      "anonymous": false,
      "inputs": [
        {
          "indexed": true,
          "internalType": "address",
          "name": "metadataDescriptor",
          "type": "address"
        }
      ],
      "name": "SetMetadataDescriptor",
      "type": "event"
    },
    {
      "anonymous": false,
      "inputs": [
        {
          "indexed": true,
          "internalType": "uint256",
          "name": "_tokenId",
          "type": "uint256"
        },
        {
          "indexed": true,
          "internalType": "uint256",
          "name": "_oldSlot",
          "type": "uint256"
        },
        {
          "indexed": true,
          "internalType": "uint256",
          "name": "_newSlot",
          "type": "uint256"
        }
      ],
      "name": "SlotChanged",
      "type": "event"
    },
    {
      "anonymous": false,
      "inputs": [
        {
          "indexed": true,
          "internalType": "address",
          "name": "from",
          "type": "address"
        },
        {
          "indexed": true,
          "internalType": "address",
          "name": "to",
          "type": "address"
        },
        {
          "indexed": true,
          "internalType": "uint256",
          "name": "tokenId",
          "type": "uint256"
        }
      ],
      "name": "Transfer",
      "type": "event"
    },
    {
      "anonymous": false,
      "inputs": [
        {
          "indexed": true,
          "internalType": "uint256",
          "name": "_fromTokenId",
          "type": "uint256"
        },
        {
          "indexed": true,
          "internalType": "uint256",
          "name": "_toTokenId",
          "type": "uint256"
        },
        {
          "indexed": false,
          "internalType": "uint256",
          "name": "_value",
          "type": "uint256"
        }
      ],
      "name": "TransferValue",
      "type": "event"
    },
    {
      "inputs": [
        {
          "internalType": "uint256",
          "name": "tokenId_",
          "type": "uint256"
        },
        {
          "internalType": "address",
          "name": "operator_",
          "type": "address"
        }
      ],
      "name": "allowance",
      "outputs": [
        {
          "internalType": "uint256",
          "name": "",
          "type": "uint256"
        }
      ],
      "stateMutability": "view",
      "type": "function"
    },
    {
      "inputs": [
        {
          "internalType": "address",
          "name": "to_",
          "type": "address"
        },
        {
          "internalType": "uint256",
          "name": "tokenId_",
          "type": "uint256"
        }
      ],
      "name": "approve",
      "outputs": [],
      "stateMutability": "nonpayable",
      "type": "function"
    },
    {
      "inputs": [
        {
          "internalType": "uint256",
          "name": "tokenId_",
          "type": "uint256"
        },
        {
          "internalType": "address",
          "name": "to_",
          "type": "address"
        },
        {
          "internalType": "uint256",
          "name": "value_",
          "type": "uint256"
        }
      ],
      "name": "approve",
      "outputs": [],
      "stateMutability": "payable",
      "type": "function"
    },
    {
      "inputs": [
        {
          "internalType": "address",
          "name": "owner_",
          "type": "address"
        }
      ],
      "name": "balanceOf",
      "outputs": [
        {
          "internalType": "uint256",
          "name": "balance",
          "type": "uint256"
        }
      ],
      "stateMutability": "view",
      "type": "function"
    },
    {
      "inputs": [
        {
          "internalType": "uint256",
          "name": "tokenId_",
          "type": "uint256"
        }
      ],
      "name": "balanceOf",
      "outputs": [
        {
          "internalType": "uint256",
          "name": "",
          "type": "uint256"
        }
      ],
      "stateMutability": "view",
      "type": "function"
    },
    {
      "inputs": [
        {
          "internalType": "uint256",
          "name": "tokenId_",
          "type": "uint256"
        }
      ],
      "name": "getApproved",
      "outputs": [
        {
          "internalType": "address",
          "name": "",
          "type": "address"
        }
      ],
      "stateMutability": "view",
      "type": "function"
    },
    {
      "inputs": [
        {
          "internalType": "address",
          "name": "owner_",
          "type": "address"
        },
        {
          "internalType": "address",
          "name": "operator_",
          "type": "address"
        }
      ],
      "name": "isApprovedForAll",
      "outputs": [
        {
          "internalType": "bool",
          "name": "",
          "type": "bool"
        }
      ],
      "stateMutability": "view",
      "type": "function"
    },
    {
      "inputs": [
        {
          "internalType": "uint256",
          "name": "tokenId_",
          "type": "uint256"
        }
      ],
      "name": "ownerOf",
      "outputs": [
        {
          "internalType": "address",
          "name": "owner_",
          "type": "address"
        }
      ],
      "stateMutability": "view",
      "type": "function"
    },
    {
      "inputs": [
        {
          "internalType": "address",
          "name": "from_",
          "type": "address"
        },
        {
          "internalType": "address",
          "name": "to_",
          "type": "address"
        },
        {
          "internalType": "uint256",
          "name": "tokenId_",
          "type": "uint256"
        }
      ],
      "name": "safeTransferFrom",
      "outputs": [],
      "stateMutability": "nonpayable",
      "type": "function"
    },
    {
      "inputs": [
        {
          "internalType": "address",
          "name": "from_",
          "type": "address"
        },
        {
          "internalType": "address",
          "name": "to_",
          "type": "address"
        },
        {
          "internalType": "uint256",
          "name": "tokenId_",
          "type": "uint256"
        },
        {
          "internalType": "bytes",
          "name": "data_",
          "type": "bytes"
        }
      ],
      "name": "safeTransferFrom",
      "outputs": [],
      "stateMutability": "nonpayable",
      "type": "function"
    },
    {
      "inputs": [
        {
          "internalType": "address",
          "name": "operator_",
          "type": "address"
        },
        {
          "internalType": "bool",
          "name": "approved_",
          "type": "bool"
        }
      ],
      "name": "setApprovalForAll",
      "outputs": [],
      "stateMutability": "nonpayable",
      "type": "function"
    },
    {
      "inputs": [
        {
          "internalType": "uint256",
          "name": "tokenId_",
          "type": "uint256"
        }
      ],
      "name": "slotOf",
      "outputs": [
        {
          "internalType": "uint256",
          "name": "",
          "type": "uint256"
        }
      ],
      "stateMutability": "view",
      "type": "function"
    },
    {
      "inputs": [
        {
          "internalType": "bytes4",
          "name": "interfaceId",
          "type": "bytes4"
        }
      ],
      "name": "supportsInterface",
      "outputs": [
        {
          "internalType": "bool",
          "name": "",
          "type": "bool"
        }
      ],
      "stateMutability": "view",
      "type": "function"
    },
    {
      "inputs": [
        {
          "internalType": "uint256",
          "name": "index_",
          "type": "uint256"
        }
      ],
      "name": "tokenByIndex",
      "outputs": [
        {
          "internalType": "uint256",
          "name": "",
          "type": "uint256"
        }
      ],
      "stateMutability": "view",
      "type": "function"
    },
    {
      "inputs": [
        {
          "internalType": "address",
          "name": "owner_",
          "type": "address"
        },
        {
          "internalType": "uint256",
          "name": "index_",
          "type": "uint256"
        }
      ],
      "name": "tokenOfOwnerByIndex",
      "outputs": [
        {
          "internalType": "uint256",
          "name": "",
          "type": "uint256"
        }
      ],
      "stateMutability": "view",
      "type": "function"
    },
    {
      "inputs": [],
      "name": "totalSupply",
      "outputs": [
        {
          "internalType": "uint256",
          "name": "",
          "type": "uint256"
        }
      ],
      "stateMutability": "view",
      "type": "function"
    },
    {
      "inputs": [
        {
          "internalType": "uint256",
          "name": "fromTokenId_",
          "type": "uint256"
        },
        {
          "internalType": "address",
          "name": "to_",
          "type": "address"
        },
        {
          "internalType": "uint256",
          "name": "value_",
          "type": "uint256"
        }
      ],
      "name": "transferFrom",
      "outputs": [
        {
          "internalType": "uint256",
          "name": "",
          "type": "uint256"
        }
      ],
      "stateMutability": "payable",
      "type": "function"
    },
    {
      "inputs": [
        {
          "internalType": "address",
          "name": "from_",
          "type": "address"
        },
        {
          "internalType": "address",
          "name": "to_",
          "type": "address"
        },
        {
          "internalType": "uint256",
          "name": "tokenId_",
          "type": "uint256"
        }
      ],
      "name": "transferFrom",
      "outputs": [],
      "stateMutability": "nonpayable",
      "type": "function"
    },
    {
      "inputs": [
        {
          "internalType": "uint256",
          "name": "fromTokenId_",
          "type": "uint256"
        },
        {
          "internalType": "uint256",
          "name": "toTokenId_",
          "type": "uint256"
        },
        {
          "internalType": "uint256",
          "name": "value_",
          "type": "uint256"
        }
      ],
      "name": "transferFrom",
      "outputs": [],
      "stateMutability": "payable",
      "type": "function"
    },
    {
      "inputs": [],
      "name": "valueDecimals",
      "outputs": [
        {
          "internalType": "uint8",
          "name": "",
          "type": "uint8"
        }
      ],
      "stateMutability": "view",
      "type": "function"
    }
  ],
  "bytecode": {
    "object": "0x608060405234801561001057600080fd5b50612134806100206000396000f3fe60806040526004361061011f5760003560e01c806342842e0e116100a05780639cc7f708116100645780639cc7f70814610311578063a22cb46514610331578063b88d4fde14610351578063e345e0bc14610371578063e985e9c5146103b457600080fd5b806342842e0e1461027e5780634f6ccce71461029e5780636352211e146102be57806370a08231146102de5780638cb0a511146102fe57600080fd5b806323b872dd116100e757806323b872dd146101e9578063263f3e7e146102095780632f745c5914610229578063310ed7f0146102495780633e7e86691461025c57600080fd5b806301ffc9a714610124578063081812fc14610159578063095ea7b3146101915780630f485c02146101b357806318160ddd146101d4575b600080fd5b34801561013057600080fd5b5061014461013f366004611be4565b610401565b60405190151581526020015b60405180910390f35b34801561016557600080fd5b50610179610174366004611c08565b610438565b6040516001600160a01b039091168152602001610150565b34801561019d57600080fd5b506101b16101ac366004611c38565b6104f1565b005b6101c66101c1366004611c62565b610576565b604051908152602001610150565b3480156101e057600080fd5b506004546101c6565b3480156101f557600080fd5b506101b1610204366004611c97565b6105b9565b34801561021557600080fd5b506101c6610224366004611c08565b6105ea565b34801561023557600080fd5b506101c6610244366004611c38565b610690565b6101b1610257366004611cc3565b610731565b34801561026857600080fd5b5060025460405160ff9091168152602001610150565b34801561028a57600080fd5b506101b1610299366004611c97565b610747565b3480156102aa57600080fd5b506101c66102b9366004611c08565b610752565b3480156102ca57600080fd5b506101796102d9366004611c08565b6107e3565b3480156102ea57600080fd5b506101c66102f9366004611cef565b61086f565b6101b161030c366004611c62565b6108f7565b34801561031d57600080fd5b506101c661032c366004611c08565b61097e565b34801561033d57600080fd5b506101b161034c366004611d18565b610a27565b34801561035d57600080fd5b506101b161036c366004611d65565b610a36565b34801561037d57600080fd5b506101c661038c366004611e41565b60009182526003602090815260408084206001600160a01b0393909316845291905290205490565b3480156103c057600080fd5b506101446103cf366004611e6d565b6001600160a01b0391821660009081526006602090815260408083209390941682526002909201909152205460ff1690565b60006001600160e01b03198216630354d60560e61b148061043257506001600160e01b031982166380ac58cd60e01b145b92915050565b600061044382610a68565b6104aa5760405162461bcd60e51b815260206004820152602d60248201527f455243333532353a20617070726f76656420717565727920666f72206e6f6e6560448201526c3c34b9ba32b73a103a37b5b2b760991b60648201526084015b60405180910390fd5b6000828152600560205260409020546004805490919081106104ce576104ce611e97565b60009182526020909120600460069092020101546001600160a01b031692915050565b60006104fc826107e3565b9050806001600160a01b0316836001600160a01b03160361052f5760405162461bcd60e51b81526004016104a190611ead565b336001600160a01b038216148061054b575061054b81336103cf565b6105675760405162461bcd60e51b81526004016104a190611eef565b6105718383610ab4565b505050565b6000610583338584610b4b565b600061058e85610bf0565b90506105a58461059d876105ea565b836000610bfa565b506105b1858285610d95565b949350505050565b6105c33382611012565b6105df5760405162461bcd60e51b81526004016104a190611f4c565b6105718383836110dc565b60006105f582610a68565b6106535760405162461bcd60e51b815260206004820152602960248201527f455243333532353a20736c6f7420717565727920666f72206e6f6e657869737460448201526832b73a103a37b5b2b760b91b60648201526084016104a1565b60008281526005602052604090205460048054909190811061067757610677611e97565b9060005260206000209060060201600101549050919050565b600061069b8361086f565b82106106f45760405162461bcd60e51b815260206004820152602260248201527f455243333532353a206f776e657220696e646578206f7574206f6620626f756e604482015261647360f01b60648201526084016104a1565b6001600160a01b038316600090815260066020526040902080548390811061071e5761071e611e97565b9060005260206000200154905092915050565b61073c338483610b4b565b610571838383610d95565b610571838383610747565b600061075d60045490565b82106107b75760405162461bcd60e51b815260206004820152602360248201527f455243333532353a20676c6f62616c20696e646578206f7574206f6620626f756044820152626e647360e81b60648201526084016104a1565b600482815481106107ca576107ca611e97565b9060005260206000209060060201600001549050919050565b60006107ee82610a68565b61080a5760405162461bcd60e51b81526004016104a190611f9e565b60008281526005602052604090205460048054909190811061082e5761082e611e97565b60009182526020909120600360069092020101546001600160a01b031690508061086a5760405162461bcd60e51b81526004016104a190611f9e565b919050565b60006001600160a01b0382166108db5760405162461bcd60e51b815260206004820152602b60248201527f455243333532353a2062616c616e636520717565727920666f7220746865207a60448201526a65726f206164647265737360a81b60648201526084016104a1565b506001600160a01b031660009081526006602052604090205490565b6000610902846107e3565b9050806001600160a01b0316836001600160a01b0316036109355760405162461bcd60e51b81526004016104a190611ead565b336001600160a01b0382161480610951575061095181336103cf565b61096d5760405162461bcd60e51b81526004016104a190611eef565b610978848484611252565b50505050565b600061098982610a68565b6109ea5760405162461bcd60e51b815260206004820152602c60248201527f455243333532353a2062616c616e636520717565727920666f72206e6f6e657860448201526b34b9ba32b73a103a37b5b2b760a11b60648201526084016104a1565b600082815260056020526040902054600480549091908110610a0e57610a0e611e97565b9060005260206000209060060201600201549050919050565b610a32338383611321565b5050565b610a403383611012565b610a5c5760405162461bcd60e51b81526004016104a190611f4c565b610978848484846113eb565b600454600090158015906104325750600082815260056020526040902054600480548492908110610a9b57610a9b611e97565b9060005260206000209060060201600001541492915050565b600081815260056020526040902054600480548492908110610ad857610ad8611e97565b6000918252602090912060069091020160040180546001600160a01b0319166001600160a01b0392831617905581908316610b12826107e3565b6001600160a01b03167f8c5be1e5ebec7d5bd14f71427d1e84f3dd0314c0f7b2291e5b200ac8c7c3b92560405160405180910390a45050565b60008281526003602090815260408083206001600160a01b0387168452909152902054610b788484611012565b158015610b8757506000198114155b156109785781811015610bdc5760405162461bcd60e51b815260206004820152601f60248201527f455243333532353a20696e73756666696369656e7420616c6c6f77616e63650060448201526064016104a1565b6109788385610beb8585611ffe565b611252565b600061043261145e565b60006001600160a01b038516610c5c5760405162461bcd60e51b815260206004820152602160248201527f455243333532353a206d696e7420746f20746865207a65726f206164647265736044820152607360f81b60648201526084016104a1565b82600003610cb65760405162461bcd60e51b815260206004820152602160248201527f455243333532353a2063616e6e6f74206d696e74207a65726f20746f6b656e496044820152601960fa1b60648201526084016104a1565b610cbf83610a68565b15610d0c5760405162461bcd60e51b815260206004820152601d60248201527f455243333532353a20746f6b656e20616c7265616479206d696e74656400000060448201526064016104a1565b610d17858486611479565b600083815260056020526040902054600480548492908110610d3b57610d3b611e97565b9060005260206000209060060201600201819055508260007f0b2aac84f3ec956911fd78eae5311062972ff949f38412e8da39069d9f068cc684604051610d8491815260200190565b60405180910390a350909392505050565b610d9e83610a68565b610dfc5760405162461bcd60e51b815260206004820152602960248201527f45524333353235353a207472616e736665722066726f6d206e6f6e657869737460448201526832b73a103a37b5b2b760b91b60648201526084016104a1565b610e0582610a68565b610e615760405162461bcd60e51b815260206004820152602760248201527f45524333353235353a207472616e7366657220746f206e6f6e6578697374656e6044820152663a103a37b5b2b760c91b60648201526084016104a1565b600083815260056020526040812054600480549091908110610e8557610e85611e97565b9060005260206000209060060201905060006004600560008681526020019081526020016000205481548110610ebd57610ebd611e97565b906000526020600020906006020190508282600201541015610f325760405162461bcd60e51b815260206004820152602860248201527f455243333532353a207472616e7366657220616d6f756e7420657863656564736044820152672062616c616e636560c01b60648201526084016104a1565b8060010154826001015414610fa05760405162461bcd60e51b815260206004820152602e60248201527f455243333533353a207472616e7366657220746f20746f6b656e20776974682060448201526d191a5999995c995b9d081cdb1bdd60921b60648201526084016104a1565b82826002016000828254610fb49190611ffe565b9250508190555082816002016000828254610fcf9190612011565b9091555050604051838152849086907f0b2aac84f3ec956911fd78eae5311062972ff949f38412e8da39069d9f068cc69060200160405180910390a35050505050565b600061101d82610a68565b61107f5760405162461bcd60e51b815260206004820152602d60248201527f455243333532353a206f70657261746f7220717565727920666f72206e6f6e6560448201526c3c34b9ba32b73a103a37b5b2b760991b60648201526084016104a1565b600061108a836107e3565b9050806001600160a01b0316846001600160a01b031614806110b157506110b181856103cf565b806105b15750836001600160a01b03166110ca84610438565b6001600160a01b031614949350505050565b826001600160a01b03166110ef826107e3565b6001600160a01b0316146111545760405162461bcd60e51b815260206004820152602660248201527f455243333532353a207472616e736665722066726f6d20696e636f72726563746044820152651037bbb732b960d11b60648201526084016104a1565b6001600160a01b0382166111b85760405162461bcd60e51b815260206004820152602560248201527f455243333532353a207472616e7366657220746f20746865207a65726f206164604482015264647265737360d81b60648201526084016104a1565b6111d9838383846111c8866105ea565b6111d18761097e565b505050505050565b6111e4600082610ab4565b6111ed8161153f565b6111f783826115db565b61120182826116f7565b80826001600160a01b0316846001600160a01b03167fddf252ad1be2c89b69c2b068fc378daa952ba7f163c4a11628f55a4df523b3ef60405160405180910390a4610571838383846111c8866105ea565b61125c828461177c565b6112c25760008381526005602052604090205460048054909190811061128457611284611e97565b60009182526020808320600692909202909101600501805460018101825590835291200180546001600160a01b0319166001600160a01b0384161790555b60008381526003602090815260408083206001600160a01b038616808552908352928190208490555183815285917f621b050de0ad08b51d19b48b3e6df75348c4de6bdd93e81b252ca62e28265b1b91015b60405180910390a3505050565b816001600160a01b0316836001600160a01b0316036113825760405162461bcd60e51b815260206004820152601a60248201527f455243333532353a20617070726f766520746f2063616c6c657200000000000060448201526064016104a1565b6001600160a01b0383811660008181526006602090815260408083209487168084526002909501825291829020805460ff191686151590811790915591519182527f17307eab39ab6107e8899845ad3d59bd9653f200f220920489ca2b5937696c319101611314565b6113f68484846110dc565b6114028484848461184f565b6109785760405162461bcd60e51b815260206004820152602760248201527f455243333532353a207472616e7366657220746f206e6f6e204552433732315260448201526632b1b2b4bb32b960c91b60648201526084016104a1565b600061146960045490565b611474906001612011565b905090565b6040805160c081018252838152602080820184905260008284018190526001600160a01b038716606084015260808301819052835181815291820190935260a082015290506114c781611a04565b6114d184846116f7565b60405183906001600160a01b038616906000907fddf252ad1be2c89b69c2b068fc378daa952ba7f163c4a11628f55a4df523b3ef908290a4816000847fe4f48c240d3b994948aa54f3e2f5fca59263dfe1d52b6e4cf39a5d249b5ccb6560405160405180910390a450505050565b60008181526005602052604081205460048054909190811061156357611563611e97565b600091825260208220600560069092020190810154909250905b8181101561097857600083600501828154811061159c5761159c611e97565b60009182526020808320909101548783526003825260408084206001600160a01b039092168452915281205550806115d381612024565b91505061157d565b6000818152600560205260408120546004805490919081106115ff576115ff611e97565b6000918252602080832060069283020160030180546001600160a01b0319166001600160a01b03958616179055928516825290915260408120805490919061164990600190611ffe565b9050600082600001828154811061166257611662611e97565b9060005260206000200154905060008360010160008681526020019081526020016000205490508184600001828154811061169f5761169f611e97565b600091825260208083209091019290925583815260018601909152604080822083905586825281205583548490806116d9576116d961203d565b60019003818190600052602060002001600090559055505050505050565b60008181526005602052604090205460048054849290811061171b5761171b611e97565b6000918252602080832060069283020160030180546001600160a01b0319166001600160a01b039586161790559490921681528184526040808220805485845260018281018852928420819055938652908301815581529290922090910155565b6000818152600560205260408120546004805483929081106117a0576117a0611e97565b6000918252602082206005600690920201015491505b8181101561184457600084815260056020526040902054600480546001600160a01b038816929081106117eb576117eb611e97565b9060005260206000209060060201600501828154811061180d5761180d611e97565b6000918252602090912001546001600160a01b03160361183257600192505050610432565b8061183c81612024565b9150506117b6565b506000949350505050565b60006001600160a01b0384163b151580156118d457506040516301ffc9a760e01b8152630a85bd0160e11b60048201526001600160a01b038516906301ffc9a790602401602060405180830381865afa1580156118b0573d6000803e3d6000fd5b505050506040513d601f19601f820116820180604052508101906118d49190612053565b156119fc57604051630a85bd0160e11b81526001600160a01b0385169063150b7a029061190b903390899088908890600401612070565b6020604051808303816000875af1925050508015611946575060408051601f3d908101601f19168201909252611943918101906120e1565b60015b6119e2573d808015611974576040519150601f19603f3d011682016040523d82523d6000602084013e611979565b606091505b5080516000036119da5760405162461bcd60e51b815260206004820152602660248201527f4552433732313a207472616e7366657220746f206e6f6e20455243373231526560448201526531b2b4bb32b960d11b60648201526084016104a1565b805181602001fd5b6001600160e01b031916630a85bd0160e11b1490506105b1565b5060016105b1565b600480548251600090815260056020908152604080832084905560018401855593909152835160069092027f8a35acfbc15ff81a39ae7d344fd709f28e8600b4aa8c65c6b64bfe7fe36bd19b8101928355818501517f8a35acfbc15ff81a39ae7d344fd709f28e8600b4aa8c65c6b64bfe7fe36bd19c820155928401517f8a35acfbc15ff81a39ae7d344fd709f28e8600b4aa8c65c6b64bfe7fe36bd19d84015560608401517f8a35acfbc15ff81a39ae7d344fd709f28e8600b4aa8c65c6b64bfe7fe36bd19e840180546001600160a01b039283166001600160a01b03199182161790915560808601517f8a35acfbc15ff81a39ae7d344fd709f28e8600b4aa8c65c6b64bfe7fe36bd19f8601805491909316911617905560a084015180518594610978937f8a35acfbc15ff81a39ae7d344fd709f28e8600b4aa8c65c6b64bfe7fe36bd1a0909101920190828054828255906000526020600020908101928215611ba6579160200282015b82811115611ba657825182546001600160a01b0319166001600160a01b03909116178255602090920191600190910190611b71565b50611bb2929150611bb6565b5090565b5b80821115611bb25760008155600101611bb7565b6001600160e01b031981168114611be157600080fd5b50565b600060208284031215611bf657600080fd5b8135611c0181611bcb565b9392505050565b600060208284031215611c1a57600080fd5b5035919050565b80356001600160a01b038116811461086a57600080fd5b60008060408385031215611c4b57600080fd5b611c5483611c21565b946020939093013593505050565b600080600060608486031215611c7757600080fd5b83359250611c8760208501611c21565b9150604084013590509250925092565b600080600060608486031215611cac57600080fd5b611cb584611c21565b9250611c8760208501611c21565b600080600060608486031215611cd857600080fd5b505081359360208301359350604090920135919050565b600060208284031215611d0157600080fd5b611c0182611c21565b8015158114611be157600080fd5b60008060408385031215611d2b57600080fd5b611d3483611c21565b91506020830135611d4481611d0a565b809150509250929050565b634e487b7160e01b600052604160045260246000fd5b60008060008060808587031215611d7b57600080fd5b611d8485611c21565b9350611d9260208601611c21565b925060408501359150606085013567ffffffffffffffff80821115611db657600080fd5b818701915087601f830112611dca57600080fd5b813581811115611ddc57611ddc611d4f565b604051601f8201601f19908116603f01168101908382118183101715611e0457611e04611d4f565b816040528281528a6020848701011115611e1d57600080fd5b82602086016020830137600060208483010152809550505050505092959194509250565b60008060408385031215611e5457600080fd5b82359150611e6460208401611c21565b90509250929050565b60008060408385031215611e8057600080fd5b611e8983611c21565b9150611e6460208401611c21565b634e487b7160e01b600052603260045260246000fd5b60208082526022908201527f455243333532353a20617070726f76616c20746f2063757272656e74206f776e60408201526132b960f11b606082015260800190565b60208082526039908201527f455243333532353a20617070726f76652063616c6c6572206973206e6f74206f60408201527f776e6572206e6f7220617070726f76656420666f7220616c6c00000000000000606082015260800190565b60208082526032908201527f455243333532353a207472616e736665722063616c6c6572206973206e6f74206040820152711bdddb995c881b9bdc88185c1c1c9bdd995960721b606082015260800190565b6020808252602a908201527f455243333532353a206f776e657220717565727920666f72206e6f6e657869736040820152693a32b73a103a37b5b2b760b11b606082015260800190565b634e487b7160e01b600052601160045260246000fd5b8181038181111561043257610432611fe8565b8082018082111561043257610432611fe8565b60006001820161203657612036611fe8565b5060010190565b634e487b7160e01b600052603160045260246000fd5b60006020828403121561206557600080fd5b8151611c0181611d0a565b600060018060a01b038087168352602081871681850152856040850152608060608501528451915081608085015260005b828110156120bd5785810182015185820160a0015281016120a1565b5050600060a0828501015260a0601f19601f83011684010191505095945050505050565b6000602082840312156120f357600080fd5b8151611c0181611bcb56fea2646970667358221220bc14a8179fcbaa4eef38e24b34880fac4ea575afe1e06fb683550942d54b992a64736f6c63430008100033",
    "linkReferences": {}
  },
  "methodIdentifiers": {
    "allowance(uint256,address)": "e345e0bc",
    "approve(address,uint256)": "095ea7b3",
    "approve(uint256,address,uint256)": "8cb0a511",
    "balanceOf(address)": "70a08231",
    "balanceOf(uint256)": "9cc7f708",
    "getApproved(uint256)": "081812fc",
    "isApprovedForAll(address,address)": "e985e9c5",
    "ownerOf(uint256)": "6352211e",
    "safeTransferFrom(address,address,uint256)": "42842e0e",
    "safeTransferFrom(address,address,uint256,bytes)": "b88d4fde",
    "setApprovalForAll(address,bool)": "a22cb465",
    "slotOf(uint256)": "263f3e7e",
    "supportsInterface(bytes4)": "01ffc9a7",
    "tokenByIndex(uint256)": "4f6ccce7",
    "tokenOfOwnerByIndex(address,uint256)": "2f745c59",
    "totalSupply()": "18160ddd",
    "transferFrom(address,address,uint256)": "23b872dd",
    "transferFrom(uint256,address,uint256)": "0f485c02",
    "transferFrom(uint256,uint256,uint256)": "310ed7f0",
    "valueDecimals()": "3e7e8669"
  },
  "id": 16
}